{
  "_format": "hh-sol-artifact-1",
  "contractName": "TicketManager",
  "sourceName": "contracts/TicketManager.sol",
  "abi": [
    {
      "inputs": [],
      "stateMutability": "nonpayable",
      "type": "constructor"
    },
    {
      "anonymous": false,
      "inputs": [
        {
          "indexed": true,
          "internalType": "uint256",
          "name": "eventId",
          "type": "uint256"
        },
        {
          "indexed": false,
          "internalType": "string",
          "name": "name",
          "type": "string"
        },
        {
          "indexed": false,
          "internalType": "uint256",
          "name": "price",
          "type": "uint256"
        },
        {
          "indexed": false,
          "internalType": "uint256",
          "name": "totalTickets",
          "type": "uint256"
        }
      ],
      "name": "EventCreated",
      "type": "event"
    },
    {
      "anonymous": false,
      "inputs": [
        {
          "indexed": true,
          "internalType": "uint256",
          "name": "eventId",
          "type": "uint256"
        }
      ],
      "name": "EventDeactivated",
      "type": "event"
    },
    {
      "anonymous": false,
      "inputs": [
        {
          "indexed": true,
          "internalType": "uint256",
          "name": "ticketId",
          "type": "uint256"
        }
      ],
      "name": "ResaleCancelled",
      "type": "event"
    },
    {
      "anonymous": false,
      "inputs": [
        {
          "indexed": true,
          "internalType": "uint256",
          "name": "ticketId",
          "type": "uint256"
        },
        {
          "indexed": false,
          "internalType": "uint256",
          "name": "resalePrice",
          "type": "uint256"
        }
      ],
      "name": "TicketListedForResale",
      "type": "event"
    },
    {
      "anonymous": false,
      "inputs": [
        {
          "indexed": true,
          "internalType": "uint256",
          "name": "ticketId",
          "type": "uint256"
        },
        {
          "indexed": true,
          "internalType": "uint256",
          "name": "eventId",
          "type": "uint256"
        },
        {
          "indexed": true,
          "internalType": "address",
          "name": "buyer",
          "type": "address"
        }
      ],
      "name": "TicketPurchased",
      "type": "event"
    },
    {
      "anonymous": false,
      "inputs": [
        {
          "indexed": true,
          "internalType": "uint256",
          "name": "ticketId",
          "type": "uint256"
        },
        {
          "indexed": true,
          "internalType": "address",
          "name": "from",
          "type": "address"
        },
        {
          "indexed": true,
          "internalType": "address",
          "name": "to",
          "type": "address"
        },
        {
          "indexed": false,
          "internalType": "uint256",
          "name": "price",
          "type": "uint256"
        }
      ],
      "name": "TicketResold",
      "type": "event"
    },
    {
      "anonymous": false,
      "inputs": [
        {
          "indexed": true,
          "internalType": "uint256",
          "name": "ticketId",
          "type": "uint256"
        },
        {
          "indexed": true,
          "internalType": "address",
          "name": "from",
          "type": "address"
        },
        {
          "indexed": true,
          "internalType": "address",
          "name": "to",
          "type": "address"
        }
      ],
      "name": "TicketTransferred",
      "type": "event"
    },
    {
      "inputs": [],
      "name": "admin",
      "outputs": [
        {
          "internalType": "address",
          "name": "",
          "type": "address"
        }
      ],
      "stateMutability": "view",
      "type": "function"
    },
    {
      "inputs": [
        {
          "internalType": "uint256",
          "name": "ticketId",
          "type": "uint256"
        }
      ],
      "name": "buyResaleTicket",
      "outputs": [],
      "stateMutability": "payable",
      "type": "function"
    },
    {
      "inputs": [
        {
          "internalType": "uint256",
          "name": "eventId",
          "type": "uint256"
        }
      ],
      "name": "buyTicket",
      "outputs": [
        {
          "internalType": "uint256",
          "name": "ticketId",
          "type": "uint256"
        }
      ],
      "stateMutability": "payable",
      "type": "function"
    },
    {
      "inputs": [
        {
          "internalType": "uint256",
          "name": "ticketId",
          "type": "uint256"
        }
      ],
      "name": "cancelResaleListing",
      "outputs": [],
      "stateMutability": "nonpayable",
      "type": "function"
    },
    {
      "inputs": [
        {
          "internalType": "string",
          "name": "name",
          "type": "string"
        },
        {
          "internalType": "string",
          "name": "date",
          "type": "string"
        },
        {
          "internalType": "string",
          "name": "venue",
          "type": "string"
        },
        {
          "internalType": "uint256",
          "name": "price",
          "type": "uint256"
        },
        {
          "internalType": "uint256",
          "name": "totalTickets",
          "type": "uint256"
        }
      ],
      "name": "createEvent",
      "outputs": [
        {
          "internalType": "uint256",
          "name": "eventId",
          "type": "uint256"
        }
      ],
      "stateMutability": "nonpayable",
      "type": "function"
    },
    {
      "inputs": [
        {
          "internalType": "uint256",
          "name": "eventId",
          "type": "uint256"
        }
      ],
      "name": "deactivateEvent",
      "outputs": [],
      "stateMutability": "nonpayable",
      "type": "function"
    },
    {
      "inputs": [
        {
          "internalType": "uint256",
          "name": "",
          "type": "uint256"
        }
      ],
      "name": "events",
      "outputs": [
        {
          "internalType": "uint256",
          "name": "id",
          "type": "uint256"
        },
        {
          "internalType": "string",
          "name": "name",
          "type": "string"
        },
        {
          "internalType": "string",
          "name": "date",
          "type": "string"
        },
        {
          "internalType": "string",
          "name": "venue",
          "type": "string"
        },
        {
          "internalType": "uint256",
          "name": "price",
          "type": "uint256"
        },
        {
          "internalType": "uint256",
          "name": "totalTickets",
          "type": "uint256"
        },
        {
          "internalType": "uint256",
          "name": "ticketsSold",
          "type": "uint256"
        },
        {
          "internalType": "bool",
          "name": "active",
          "type": "bool"
        }
      ],
      "stateMutability": "view",
      "type": "function"
    },
    {
      "inputs": [
        {
          "internalType": "uint256",
          "name": "ticketId",
          "type": "uint256"
        }
      ],
      "name": "getTicket",
      "outputs": [
        {
          "internalType": "uint256",
          "name": "id",
          "type": "uint256"
        },
        {
          "internalType": "uint256",
          "name": "eventId",
          "type": "uint256"
        },
        {
          "internalType": "address",
          "name": "owner",
          "type": "address"
        },
        {
          "internalType": "bool",
          "name": "forResale",
          "type": "bool"
        },
        {
          "internalType": "uint256",
          "name": "resalePrice",
          "type": "uint256"
        }
      ],
      "stateMutability": "view",
      "type": "function"
    },
    {
      "inputs": [
        {
          "internalType": "address",
          "name": "user",
          "type": "address"
        }
      ],
      "name": "getUserTickets",
      "outputs": [
        {
          "internalType": "uint256[]",
          "name": "",
          "type": "uint256[]"
        }
      ],
      "stateMutability": "view",
      "type": "function"
    },
    {
      "inputs": [
        {
          "internalType": "uint256",
          "name": "ticketId",
          "type": "uint256"
        },
        {
          "internalType": "uint256",
          "name": "price",
          "type": "uint256"
        }
      ],
      "name": "listForResale",
      "outputs": [],
      "stateMutability": "nonpayable",
      "type": "function"
    },
    {
      "inputs": [],
      "name": "nextEventId",
      "outputs": [
        {
          "internalType": "uint256",
          "name": "",
          "type": "uint256"
        }
      ],
      "stateMutability": "view",
      "type": "function"
    },
    {
      "inputs": [],
      "name": "nextTicketId",
      "outputs": [
        {
          "internalType": "uint256",
          "name": "",
          "type": "uint256"
        }
      ],
      "stateMutability": "view",
      "type": "function"
    },
    {
      "inputs": [
        {
          "internalType": "uint256",
          "name": "",
          "type": "uint256"
        }
      ],
      "name": "tickets",
      "outputs": [
        {
          "internalType": "uint256",
          "name": "id",
          "type": "uint256"
        },
        {
          "internalType": "uint256",
          "name": "eventId",
          "type": "uint256"
        },
        {
          "internalType": "address",
          "name": "owner",
          "type": "address"
        },
        {
          "internalType": "bool",
          "name": "forResale",
          "type": "bool"
        },
        {
          "internalType": "uint256",
          "name": "resalePrice",
          "type": "uint256"
        }
      ],
      "stateMutability": "view",
      "type": "function"
    },
    {
      "inputs": [
        {
          "internalType": "uint256",
          "name": "ticketId",
          "type": "uint256"
        },
        {
          "internalType": "address",
          "name": "to",
          "type": "address"
        }
      ],
      "name": "transferTicket",
      "outputs": [],
      "stateMutability": "nonpayable",
      "type": "function"
    }
  ],
  "bytecode": "0x608060405260018055600160025534801561001957600080fd5b50600080546001600160a01b0319163317905561173d8061003b6000396000f3fe6080604052600436106100dd5760003560e01c8063679ebf1a1161007f578063957a632e11610059578063957a632e146102de5780639f9d903a146102fe578063f5f00d8414610314578063f851a4401461033457600080fd5b8063679ebf1a1461025357806367dd74ca146102735780637dc379fa1461028657600080fd5b80631f7d863c116100bb5780631f7d863c14610161578063384759341461018157806350b44712146101a15780636031a52f1461022f57600080fd5b80630484a22f146100e25780630b791430146101185780631d9c5d5c1461014c575b600080fd5b3480156100ee57600080fd5b506101026100fd36600461123b565b61036c565b60405161010f919061125d565b60405180910390f35b34801561012457600080fd5b506101386101333660046112a1565b6103d8565b60405161010f989796959493929190611300565b61015f61015a3660046112a1565b6105b5565b005b34801561016d57600080fd5b5061015f61017c36600461136c565b6107ec565b34801561018d57600080fd5b5061015f61019c3660046112a1565b61094a565b3480156101ad57600080fd5b506101f96101bc3660046112a1565b6004602052600090815260409020805460018201546002830154600390930154919290916001600160a01b03821691600160a01b900460ff169085565b6040805195865260208601949094526001600160a01b03909216928401929092529015156060830152608082015260a00161010f565b34801561023b57600080fd5b5061024560025481565b60405190815260200161010f565b34801561025f57600080fd5b5061015f61026e36600461138e565b610a33565b6102456102813660046112a1565b610c0f565b34801561029257600080fd5b506101f96102a13660046112a1565b6000908152600460205260409020805460018201546002830154600390930154919390926001600160a01b03811692600160a01b90910460ff1691565b3480156102ea57600080fd5b5061015f6102f93660046112a1565b610e83565b34801561030a57600080fd5b5061024560015481565b34801561032057600080fd5b5061024561032f36600461145d565b610f75565b34801561034057600080fd5b50600054610354906001600160a01b031681565b6040516001600160a01b03909116815260200161010f565b6001600160a01b0381166000908152600560209081526040918290208054835181840281018401909452808452606093928301828280156103cc57602002820191906000526020600020905b8154815260200190600101908083116103b8575b50505050509050919050565b600360205260009081526040902080546001820180549192916103fa906114f7565b80601f0160208091040260200160405190810160405280929190818152602001828054610426906114f7565b80156104735780601f1061044857610100808354040283529160200191610473565b820191906000526020600020905b81548152906001019060200180831161045657829003601f168201915b505050505090806002018054610488906114f7565b80601f01602080910402602001604051908101604052809291908181526020018280546104b4906114f7565b80156105015780601f106104d657610100808354040283529160200191610501565b820191906000526020600020905b8154815290600101906020018083116104e457829003601f168201915b505050505090806003018054610516906114f7565b80601f0160208091040260200160405190810160405280929190818152602001828054610542906114f7565b801561058f5780601f106105645761010080835404028352916020019161058f565b820191906000526020600020905b81548152906001019060200180831161057257829003601f168201915b505050506004830154600584015460068501546007909501549394919390925060ff1688565b60008181526004602052604090206002810154600160a01b900460ff1661061b5760405162461bcd60e51b81526020600482015260156024820152745469636b6574206e6f7420666f7220726573616c6560581b60448201526064015b60405180910390fd5b6002810154336001600160a01b03909116036106795760405162461bcd60e51b815260206004820152601a60248201527f43616e6e6f742062757920796f7572206f776e207469636b65740000000000006044820152606401610612565b80600301543410156106c45760405162461bcd60e51b8152602060048201526014602482015273125b9cdd59999a58da595b9d081c185e5b595b9d60621b6044820152606401610612565b60028101805460038301805460ff60a01b1933166001600160a81b0319841617909355600090556001600160a01b0316906106ff828561114b565b3360009081526005602090815260408083208054600181018255908452918320909101869055516001600160a01b0384169183156108fc02918491818181858888f19350505050158015610757573d6000803e3d6000fd5b508034111561079857336108fc61076e8334611547565b6040518115909202916000818181858888f19350505050158015610796573d6000803e3d6000fd5b505b336001600160a01b0316826001600160a01b0316857fd59a36d8310ffb140214be490baf3fe8961f859a17199ec1bf9015c8b7340011846040516107de91815260200190565b60405180910390a450505050565b60008281526004602052604090206002015482906001600160a01b031633146108275760405162461bcd60e51b815260040161061290611560565b600082116108775760405162461bcd60e51b815260206004820152601860248201527f526573616c65207072696365206d757374206265203e203000000000000000006044820152606401610612565b600083815260046020526040902060020154600160a01b900460ff16156108e05760405162461bcd60e51b815260206004820152601960248201527f416c7265616479206c697374656420666f7220726573616c65000000000000006044820152606401610612565b6000838152600460205260409081902060028101805460ff60a01b1916600160a01b1790556003018390555183907f2d8cbebfd87cb19b7bed949f9c8d5a80d939133966ef331ac575d69160ea04659061093d9085815260200190565b60405180910390a2505050565b60008181526004602052604090206002015481906001600160a01b031633146109855760405162461bcd60e51b815260040161061290611560565b600082815260046020526040902060020154600160a01b900460ff166109e55760405162461bcd60e51b81526020600482015260156024820152744e6f74206c697374656420666f7220726573616c6560581b6044820152606401610612565b60008281526004602052604080822060028101805460ff60a01b191690556003018290555183917f1bf13f2a475458b3a4c157b653338f31da74ed6a6a6b0356e36f366a024746c791a25050565b60008281526004602052604090206002015482906001600160a01b03163314610a6e5760405162461bcd60e51b815260040161061290611560565b6001600160a01b038216610ab85760405162461bcd60e51b8152602060048201526011602482015270125b9d985b1a59081c9958da5c1a595b9d607a1b6044820152606401610612565b336001600160a01b03831603610b105760405162461bcd60e51b815260206004820152601b60248201527f43616e6e6f74207472616e7366657220746f20796f757273656c6600000000006044820152606401610612565b600083815260046020526040902060020154600160a01b900460ff1615610b795760405162461bcd60e51b815260206004820152601b60248201527f43616e63656c20726573616c65206c697374696e6720666972737400000000006044820152606401610612565b600083815260046020526040902060020180546001600160a01b0319166001600160a01b03841617905533610bae818561114b565b6001600160a01b038084166000818152600560209081526040808320805460018101825590845291832090910188905551919284169187917fd15524263ae66f75c1e604c47db6085085110f23ef7322b355179ac5e3b0783a91a450505050565b600081815260036020526040812080548203610c645760405162461bcd60e51b8152602060048201526014602482015273115d995b9d08191bd95cc81b9bdd08195e1a5cdd60621b6044820152606401610612565b600781015460ff16610cae5760405162461bcd60e51b81526020600482015260136024820152724576656e74206973206e6f742061637469766560681b6044820152606401610612565b8060050154816006015410610cf05760405162461bcd60e51b815260206004820152600860248201526714dbdb19081bdd5d60c21b6044820152606401610612565b8060040154341015610d3b5760405162461bcd60e51b8152602060048201526014602482015273125b9cdd59999a58da595b9d081c185e5b595b9d60621b6044820152606401610612565b60028054906000610d4b8361158e565b909155506040805160a0810182528281526020808201878152338385018181526000606086018181526080870182815289835260048752888320975188559451600188810191909155925160028801805492511515600160a01b026001600160a81b03199093166001600160a01b039290921691909117919091179055925160039095019490945581526005825292832080549283018155835282200182905560068301805492945090610dfe8361158e565b91905055508060040154341115610e4e57600481015433906108fc90610e249034611547565b6040518115909202916000818181858888f19350505050158015610e4c573d6000803e3d6000fd5b505b6040513390849084907f94c5953e15f54d38b82a662bdd5739fc91af3a23d3ef7e67269dfaeee71a813c90600090a450919050565b6000546001600160a01b03163314610ed85760405162461bcd60e51b81526020600482015260186024820152774f6e6c792061646d696e2063616e2063616c6c207468697360401b6044820152606401610612565b60008181526003602052604090206007015460ff16610f325760405162461bcd60e51b81526020600482015260166024820152754576656e7420616c726561647920696e61637469766560501b6044820152606401610612565b600081815260036020526040808220600701805460ff191690555182917f9bec5b77a290657edefc9defa075c60a874e90f7cc9496853ca9962d58a4ffdd91a250565b600080546001600160a01b03163314610fcb5760405162461bcd60e51b81526020600482015260186024820152774f6e6c792061646d696e2063616e2063616c6c207468697360401b6044820152606401610612565b6000821161101b5760405162461bcd60e51b815260206004820152601d60248201527f4d7573742068617665206174206c65617374206f6e65207469636b65740000006044820152606401610612565b6001805490600061102b8361158e565b9190505590506040518061010001604052808281526020018781526020018681526020018581526020018481526020018381526020016000815260200160011515815250600360008381526020019081526020016000206000820151816000015560208201518160010190816110a191906115f6565b50604082015160028201906110b690826115f6565b50606082015160038201906110cb90826115f6565b506080820151600482015560a0820151600582015560c0820151600682015560e0909101516007909101805460ff191691151591909117905560405181907f42e6867e52299b45991308391cccb9ee79466d194059ff10fc15c2d88f0ea0619061113a908990879087906116b6565b60405180910390a295945050505050565b6001600160a01b0382166000908152600560205260408120905b81548110156112195782828281548110611181576111816116db565b90600052602060002001540361120757815482906111a190600190611547565b815481106111b1576111b16116db565b90600052602060002001548282815481106111ce576111ce6116db565b9060005260206000200181905550818054806111ec576111ec6116f1565b60019003818190600052602060002001600090559055611219565b806112118161158e565b915050611165565b50505050565b80356001600160a01b038116811461123657600080fd5b919050565b60006020828403121561124d57600080fd5b6112568261121f565b9392505050565b6020808252825182820181905260009190848201906040850190845b8181101561129557835183529284019291840191600101611279565b50909695505050505050565b6000602082840312156112b357600080fd5b5035919050565b6000815180845260005b818110156112e0576020818501810151868301820152016112c4565b506000602082860101526020601f19601f83011685010191505092915050565b60006101008a835280602084015261131a8184018b6112ba565b9050828103604084015261132e818a6112ba565b9050828103606084015261134281896112ba565b9150508560808301528460a08301528360c083015282151560e08301529998505050505050505050565b6000806040838503121561137f57600080fd5b50508035926020909101359150565b600080604083850312156113a157600080fd5b823591506113b16020840161121f565b90509250929050565b634e487b7160e01b600052604160045260246000fd5b600082601f8301126113e157600080fd5b813567ffffffffffffffff808211156113fc576113fc6113ba565b604051601f8301601f19908116603f01168101908282118183101715611424576114246113ba565b8160405283815286602085880101111561143d57600080fd5b836020870160208301376000602085830101528094505050505092915050565b600080600080600060a0868803121561147557600080fd5b853567ffffffffffffffff8082111561148d57600080fd5b61149989838a016113d0565b965060208801359150808211156114af57600080fd5b6114bb89838a016113d0565b955060408801359150808211156114d157600080fd5b506114de888289016113d0565b9598949750949560608101359550608001359392505050565b600181811c9082168061150b57607f821691505b60208210810361152b57634e487b7160e01b600052602260045260246000fd5b50919050565b634e487b7160e01b600052601160045260246000fd5b8181038181111561155a5761155a611531565b92915050565b6020808252601490820152732737ba103a3432903a34b1b5b2ba1037bbb732b960611b604082015260600190565b6000600182016115a0576115a0611531565b5060010190565b601f8211156115f157600081815260208120601f850160051c810160208610156115ce5750805b601f850160051c820191505b818110156115ed578281556001016115da565b5050505b505050565b815167ffffffffffffffff811115611610576116106113ba565b6116248161161e84546114f7565b846115a7565b602080601f83116001811461165957600084156116415750858301515b600019600386901b1c1916600185901b1785556115ed565b600085815260208120601f198616915b8281101561168857888601518255948401946001909101908401611669565b50858210156116a65787850151600019600388901b60f8161c191681555b5050505050600190811b01905550565b6060815260006116c960608301866112ba565b60208301949094525060400152919050565b634e487b7160e01b600052603260045260246000fd5b634e487b7160e01b600052603160045260246000fdfea26469706673582212205ee006cdd863a775cf2618d267d88a83be11ff6389c7829e6eda83876524b3fd64736f6c63430008140033",
  "linkReferences": {},
  "deployedLinkReferences": {}
}